{
  "_format": "hh-sol-artifact-1",
  "contractName": "FCDT",
  "sourceName": "contracts/MyContracts.sol",
  "abi": [
    {
      "inputs": [
        {
          "internalType": "string",
          "name": "_work",
          "type": "string"
        },
        {
          "internalType": "bool",
          "name": "_status",
          "type": "bool"
        }
      ],
      "name": "addWork",
      "outputs": [],
      "stateMutability": "nonpayable",
      "type": "function"
    },
    {
      "inputs": [],
      "name": "getWork",
      "outputs": [
        {
          "internalType": "bool",
          "name": "",
          "type": "bool"
        }
      ],
      "stateMutability": "view",
      "type": "function"
    }
  ],
  "bytecode": "0x6080604052348015600f57600080fd5b506106248061001f6000396000f3fe608060405234801561001057600080fd5b50600436106100365760003560e01c80631c26d5cb1461003b578063b5ba292614610059575b600080fd5b610043610075565b60405161005091906100fe565b60405180910390f35b610073600480360381019061006e919061029f565b61008e565b005b60008060010160009054906101000a900460ff16905090565b60405180604001604052808381526020018215158152506000808201518160000190816100bb919061051c565b5060208201518160010160006101000a81548160ff0219169083151502179055509050505050565b60008115159050919050565b6100f8816100e3565b82525050565b600060208201905061011360008301846100ef565b92915050565b6000604051905090565b600080fd5b600080fd5b600080fd5b600080fd5b6000601f19601f8301169050919050565b7f4e487b7100000000000000000000000000000000000000000000000000000000600052604160045260246000fd5b61018082610137565b810181811067ffffffffffffffff8211171561019f5761019e610148565b5b80604052505050565b60006101b2610119565b90506101be8282610177565b919050565b600067ffffffffffffffff8211156101de576101dd610148565b5b6101e782610137565b9050602081019050919050565b82818337600083830152505050565b6000610216610211846101c3565b6101a8565b90508281526020810184848401111561023257610231610132565b5b61023d8482856101f4565b509392505050565b600082601f83011261025a5761025961012d565b5b813561026a848260208601610203565b91505092915050565b61027c816100e3565b811461028757600080fd5b50565b60008135905061029981610273565b92915050565b600080604083850312156102b6576102b5610123565b5b600083013567ffffffffffffffff8111156102d4576102d3610128565b5b6102e085828601610245565b92505060206102f18582860161028a565b9150509250929050565b600081519050919050565b7f4e487b7100000000000000000000000000000000000000000000000000000000600052602260045260246000fd5b6000600282049050600182168061034d57607f821691505b6020821081036103605761035f610306565b5b50919050565b60008190508160005260206000209050919050565b60006020601f8301049050919050565b600082821b905092915050565b6000600883026103c87fffffffffffffffffffffffffffffffffffffffffffffffffffffffffffffffff8261038b565b6103d2868361038b565b95508019841693508086168417925050509392505050565b6000819050919050565b6000819050919050565b600061041961041461040f846103ea565b6103f4565b6103ea565b9050919050565b6000819050919050565b610433836103fe565b61044761043f82610420565b848454610398565b825550505050565b600090565b61045c61044f565b61046781848461042a565b505050565b5b8181101561048b57610480600082610454565b60018101905061046d565b5050565b601f8211156104d0576104a181610366565b6104aa8461037b565b810160208510156104b9578190505b6104cd6104c58561037b565b83018261046c565b50505b505050565b600082821c905092915050565b60006104f3600019846008026104d5565b1980831691505092915050565b600061050c83836104e2565b9150826002028217905092915050565b610525826102fb565b67ffffffffffffffff81111561053e5761053d610148565b5b6105488254610335565b61055382828561048f565b600060209050601f8311600181146105865760008415610574578287015190505b61057e8582610500565b8655506105e6565b601f19841661059486610366565b60005b828110156105bc57848901518255600182019150602085019450602081019050610597565b868310156105d957848901516105d5601f8916826104e2565b8355505b6001600288020188555050505b50505050505056fea26469706673582212207029cde9ab262374d51406b439dd41b11cfa5ff5e4783d063d6f74ae4ac8f3e364736f6c634300081b0033",
  "linkReferences": {},
  "deployedLinkReferences": {}
}